:020000040800F2
:10000000E08800204501000825290008272900086C
:100010002B2900082F2900083329000800000000C0
:100020000000000000000000000000003729000868
:1000300039290008000000003B2900083D2900087C
:100040005F0100085F0100085F0100085F01000810
:100050005F0100085F010008452900085F010008F2
:100060005F0100085F0100086D4500085F0100089E
:100070005F0100085F0100085F0100085F010008E0
:100080005F0100085F0100085F0100085F010008D0
:100090005F0100085F0100085F0100089745000844
:1000A0005F0100085F0100085F0100085F010008B0
:1000B000DD2A00085F0100085F0100085F010008F9
:1000C0005F0100085F0100085F0100085F01000890
:1000D0005F0100085F010008492F00086B4A000813
:1000E0005F0100085F0100085F0100085F01000870
:1000F0005F0100085F0100085F0100085F01000860
:100100005F0100085F0100085F0100085F0100084F
:10011000554400085F0100085F0100085F01000806
:100120005F0100085F0100085F0100085F0100082F
:10013000DFF80CD005F0E4F80048004789280008F3
:10014000E08800200648804706480047FEE7FEE7B3
:10015000FEE7FEE7FEE7FEE7FEE7FEE7FEE7FEE777
:1001600047020008310100080CB500200190009002
:100170006C48006840F480306A49086000BF6948F4
:10018000006800F4003000900198401C0190009835
:1001900018B90198B0F5A06FF1D16248006800F479
:1001A000003010B10120009001E000200090009884
:1001B000012843D15C48006840F010005A490860AB
:1001C0000846006820F0030008600846006840F018
:1001D0000200086053484068524948600846406839
:1001E00048600846406840F48060486008464068BF
:1001F00020F47C1048600846406840F4F8104860DD
:100200000846006840F08070086000BF45480068FC
:1002100000F000700028F9D04248406820F0030048
:10022000404948600846406840F00200486000BF0E
:100230003C48406800F00C000828F9D10CBD10B50E
:10024000FFF792FF10BD10B53648006840F001007E
:1002500034490860084640683449084031494860DC
:1002600008460068324908402E4908600846006880
:1002700020F4802008600846406820F4FE004860B2
:100280004FF41F008860FFF7DAFF4FF00060294944
:10029000086010BD10B5002100200022214B5B68D2
:1002A00003F00C0121B1042906D0082928D107E068
:1002B000214B224C236027E0214B204C236023E07C
:1002C000184B5B6803F47010164B5B6803F48032C4
:1002D000022303EB904022B91A4B4343174C23608F
:1002E0000DE0104B5B6803F4003323B1124B434322
:1002F000124C236003E0124B4343104C236003E095
:100300000D4B0E4C236000BF00BF064B5B68C3F370
:1003100003130D4CE15C094B1B68CB40074C236079
:1003200010BD000000100240002002400000FFF855
:10033000FFFFF6FE08ED00E000127A00000000204A
:100340000024F40000093D0004000020314901436D
:10035000314A1160704770B5002100230F22C47824
:1003600004B32D4C246804F4E064C4F5E064210A6D
:10037000C1F10403CA40447804FA03F184781440BC
:1003800021430901254C0678A155047804F01F0586
:100390000124AC4005786D11AD0005F1E025C5F8EC
:1003A000004109E0047804F01F050124AC401C4D15
:1003B0000678761145F8264070BD1A4A0A40024375
:1003C000154B1B1F1A60704739B1134A121D126872
:1003D0000243114B1B1D1A6006E00F4A121D1268E2
:1003E00082430D4B1B1D1A607047042808D14FF043
:1003F000E021096941F004014FF0E022116107E0BA
:100400004FF0E021096921F004014FF0E022116171
:10041000704700000000FA050CED00E000E400E089
:1004200080E100E080FFFF1F01684FF6FE7211407F
:1004300001600021016041608160C1608D49884296
:1004400008D18C490839496841F00F01894A083AB6
:1004500051608AE087491431884208D185490839BA
:10046000496841F0F001834A083A51607DE08149D2
:100470002831884208D17F490839496841F47061C0
:100480007C4A083A516070E07A493C31884208D190
:1004900078490839496841F47041764A083A516010
:1004A00063E074495031884208D17249083949687B
:1004B00041F470216F4A083A516056E06D49643149
:1004C000884208D16B490839496841F47001694A8A
:1004D000083A516049E067497831884208D1654956
:1004E0000839496841F07061624A083A51603CE05D
:1004F0006149884206D1011F096841F00F01021FBE
:10050000116032E05C491431884208D15A49091F10
:10051000096841F0F001584A121F116025E0564960
:100520002831884208D15449091F096841F4706193
:10053000514A121F116018E04F493C31884208D1DE
:100540004D49091F096841F470414B4A121F11605F
:100550000BE049495031884207D14749091F0968D2
:1005600041F47021444A121F1160704710B50022F7
:10057000026847F6F0739A430C6A8B6823430C6950
:1005800023434C6923438C692343CC6923434C6A3E
:1005900023438C6A23431A430260CB6843600B6891
:1005A00083604B68C36010BD0021016041608160C1
:1005B000C160016141618161C16101624162816229
:1005C000704721B1026842F00102026004E0026853
:1005D0004FF6FE731A40026070471AB103680B436E
:1005E000036002E003688B4303607047416070471B
:1005F0000146486880B2704701460020002201F0A1
:1006000080531BB11C4B083B1A6802E0194B083B96
:100610001A6802EA01030BB1012000E000207047D4
:1006200000F0805119B11449091F086002E0114916
:1006300008394860704701460020002201F08053CD
:100640001BB10D4B083B1A6802E00A4B083B1A68C5
:1006500002EA01030BB1012000E00020704700F026
:10066000805119B10449091F086002E001490839A5
:1006700048607047080002400804024010B5044674
:10068000CC48844208D10121042000F02DFB002138
:10069000042000F029FB46E0C748844208D101212C
:1006A000082000F021FB0021082000F01DFB3AE0AB
:1006B000C248844208D10121102000F015FB00211E
:1006C000102000F011FB2EE0BD48844208D101212A
:1006D000202000F009FB0021202000F005FB22E093
:1006E000B848844208D10121402000F0FDFA0021E1
:1006F000402000F0F9FA16E0B348844208D1012105
:10070000802000F0F1FA0021802000F0EDFA0AE0EC
:10071000AE48844207D10121801500F0E5FA00219E
:10072000A01500F0E1FA10BD10B50121084600F057
:10073000DBFA0021012000F0D7FA10BD2DE9F041CD
:10074000024600250026002000230024002791F8FF
:1007500003C00CF00F0591F803C00CF0100CBCF1B5
:10076000000F03D091F802C04CEA050591F800C0D3
:10077000BCF1000F31D0146800202BE04FF0010CC9
:100780000CFA00F3B1F800C00CEA03069E4220D137
:1007900083004FF00F0C0CFA03F7BC4305FA03FC7F
:1007A0004CEA040491F803C0BCF1280F06D14FF0C5
:1007B000010C0CFA00FCC2F814C00AE091F803C066
:1007C000BCF1480F05D14FF0010C0CFA00FCC2F847
:1007D00010C0401C0828D1D31460B1F800C0BCF18F
:1007E000FF0F34DD546800202EE000F1080C4FF0BC
:1007F000010808FA0CF3B1F800C00CEA03069E42A7
:1008000021D183004FF00F0C0CFA03F7BC4305FA1B
:1008100003FC4CEA040491F803C0BCF1280F05D195
:1008200000F1080C08FA0CF8C2F8148091F803C023
:10083000BCF1480F07D100F1080C4FF0010808FA8D
:100840000CF8C2F81080401C0828CED35460BDE8D4
:10085000F0814FF6FF710180022181700421C17087
:1008600070470246002093680B400BB1012000E066
:10087000002070470146886880B270470246002019
:10088000D3680B400BB1012000E000207047014607
:10089000C86880B2704701617047416170470AB112
:1008A000016100E041617047C16070474FF48032E0
:1008B0000A4382618161826182698269704702466E
:1008C0000020434B18684FF68073184040EA02102E
:1008D00008433F4B186070473E49C8617047F0B508
:1008E0000A46002300240021002500F00046B6F14E
:1008F000004F02D1364EF16901E0354E7168C0F308
:10090000034583B200F44016B6F5401F08D121F02C
:1009100070612F4E766826F070662D4F7E6012E073
:1009200000F48016B6F5801F06D1032606FA05F4FA
:10093000A14341F0706106E0460D360103FA06F668
:10094000B14341F0706122B1460D360103FA06F65B
:10095000314300F00046B6F1004F02D11C4EF16168
:1009600001E01B4E7160F0BD30B500228B071C0FFB
:100970000F2303FA04F2164B08338C1053F824307B
:100980009343134C08348D1044F8253023468C10C3
:1009900053F824308C07240F00FA04F423430C4C42
:1009A00008348D1044F8253030BD0A49DC31086028
:1009B0007047000000080140000C01400010014099
:1009C0000014014000180140001C014000200140BB
:1009D0000000014000002042DF48006840F00100B4
:1009E000DD49086008464068DC490840DA4948604B
:1009F00008460068DA490840D74908600846006898
:100A000020F4802008600846406820F4FE0048601A
:100A10004FF41F0088607047CF49096821F4803186
:100A2000CD4A11601146096821F480211160B0F5AA
:100A3000803F03D0B0F5802F0ED106E0C64909688B
:100A400041F48031C44A116007E0C349096841F4A8
:100A5000A021C14A116000E000BF00BF704710B57F
:100A600001460022002300204A11012A02D1BA4C7B
:100A7000236806E0022A02D1B74C236A01E0B64C93
:100A8000636A01F01F02012494401C400CB1012054
:100A900000E0002010BD38B50020009000240025A3
:100AA00000BF3120FFF7DBFF05460098401C009097
:100AB0000098B0F5A06F01D0002DF2D03120FFF7E3
:100AC000CEFF08B1012400E00024204638BD0146D5
:100AD0000020A14A106820F0F80040EAC100106030
:100AE0007047A04908607047024600209A4B58683A
:100AF00020F47C1042EA01031843974B586070477A
:100B000098490866704701460020934A506820F0D3
:100B100003000843506070478F48406800F00C00A5
:100B20007047014600208C4A506820F0F0000843CE
:100B30005060704701460020874A506820F4E0600A
:100B400008435060704701460020834A506820F4F3
:100B5000605040EAC1005060704729B17E4A527A25
:100B600002437D4B5A7204E07B4A527A82437A4BAD
:100B70005A7270477B49D83108607047014600209F
:100B8000754A506820F44040084350607047002187
:100B9000714A20321170704A82F82010012802D068
:100BA00004280AD104E001216B4A2032117005E0CB
:100BB0000521694A2032117000E000BF00BF704774
:100BC0006949086070476449096A0143624A1162D1
:100BD0007047654944390860704730B500210022EC
:100BE000002400235C4D6D6805F00C0121B104293F
:100BF00005D0082923D105E05C4D056022E05C4D5D
:100C000005601FE0544D6D6805F47012524D6D681B
:100C100005F48034022505EB92421CB9554D55432D
:100C200005600BE04C4D6D6805F400351DB14F4D6E
:100C30005543056002E04E4D5543056002E04B4DC3
:100C4000056000BF00BF444D6D6805F0F001090963
:100C5000494D6B5C0568DD4045603F4D6D6805F4AE
:100C6000E061090A444D6B5C4568DD4085603A4DA2
:100C70006D6805F46051C90A3F4D6B5C4568DD4005
:100C8000C560354D6D6805F44041890B3B4D6B5C8B
:100C9000C568B5FBF3F5056130BD29B12E4A52692F
:100CA00002432D4B5A6104E02B4A526982432A4B7E
:100CB0005A61704729B1284A92690243264B9A61CA
:100CC00004E0254A92698243234B9A61704729B117
:100CD000214AD2690243204BDA6104E01E4AD269FC
:100CE00082431D4BDA61704729B11B4AD268024327
:100CF000194BDA6004E0184AD2688243164BDA6076
:100D0000704729B1144A12690243134B1A6104E077
:100D1000114A12698243104B1A61704712494039D7
:100D2000086070470F49C86470470B49C871704725
:100D30000948406A40F080700749486270470146A0
:100D40000020054A92680A400AB1012000E0002014
:100D50007047014988727047001002400000FFF898
:100D6000FFFFF6FE000042428004424200127A0079
:100D70000024F40000093D0014000020240000209D
:100D800010B50446FB48844209D101218803FFF7CE
:100D9000ABFF00214FF48040FFF7A6FF32E0F6489A
:100DA000844209D101214804FFF7ABFF00214FF431
:100DB0000030FFF7A6FF25E0F048844209D1012169
:100DC0008804FFF79EFF00214FF48020FFF799FF72
:100DD00018E0EB48844209D10121C804FFF791FFD4
:100DE00000214FF40020FFF78CFF0BE0E548844220
:100DF00008D101210805FFF784FF00214FF480107E
:100E0000FFF77FFF10BD2DE9F04786B005460E467F
:100E10000024A24600BFA1460027B08900B100BF50
:100E20002F462C8A4CF6FF700440F08804432C8235
:100E3000AC894EF6F3100440B088318908437189BB
:100E400008430443AC81AC8A4FF6FF400440B089AC
:100E50000443AC8201A8FFF7C0FEC648874202D116
:100E6000DDF810A001E0DDF80CA0A88900F4004036
:100E700040B10AEBCA0000EB0A1031684900B0FB30
:100E8000F1F807E00AEBCA0000EB0A1031688900AC
:100E9000B0FBF1F86420B8FBF0F0040120096421F4
:100EA00001FB1089A88900F4004040B1322000EB1A
:100EB000C900B0FBF1F000F00700044308E0322065
:100EC00000EB09106421B0FBF1F000F00F000443C7
:100ED0002C8106B0BDE8F0874FF416510160002167
:100EE0008180C18001810C21418100218181704775
:100EF00010B502460020108A4FF2FF0318400B88FD
:100F00004C8823438C882343CC8823431843108286
:100F100010BD0021018041808180C180704721B1D6
:100F2000828942F40052828104E082894DF6FF7387
:100F30001A4082817047F0B5034600240026002540
:100F4000002040F66A17B94200D100BF1846C1F32D
:100F5000421401F01F06012707FA06F5012C01D102
:100F60000C3004E0022C01D1103000E014301AB132
:100F700007682F43076002E00768AF430760F0BDD2
:100F80001AB1838A0B43838202E0838A8B43838274
:100F90007047028A4FF6F0731A400282028A0A43AF
:100FA0000282704782894FF2FF731A4082818289E0
:100FB0000A438281704721B1828942F00202828114
:100FC00004E082894FF6FD731A4082817047028ADD
:100FD0004FF6DF731A400282028A0A430282704788
:100FE00021B1028A42F48042028204E0028A4BF676
:100FF000FF731A4002827047C1F308028280704773
:1010000001468888C0F308007047818941F00101DA
:1010100081817047028BD2B20283028B42EA0122A5
:1010200002837047028B02F47F420283028B0A43E1
:101030000283704721B1828A42F02002828204E05A
:10104000828A4FF6DF731A408282704721B1828A0A
:1010500042F01002828204E0828A4FF6EF731A4057
:101060008282704721B1828A42F00802828204E0C3
:10107000828A4FF6F7731A408282704721B18289C3
:1010800042F40042828103E08289C2F30E0282812F
:10109000704721B1828A42F40062828204E0828A2F
:1010A0004FF2FF731A4082827047828A4FF6FB73B9
:1010B0001A408282828A0A438282704721B1828AE0
:1010C00042F00202828204E0828A4FF6FD731A40E7
:1010D0008282704702460020B1F5007F00D100BF38
:1010E00013880B400BB1012000E00020704701F491
:1010F0000072B2F5007F00D100BFCA430280704782
:1011000070B50246002400230025002040F66A1630
:10111000B14200D100BFC1F3421501F01F03012607
:1011200006FA03F3012D02D19689334006E0022D21
:1011300002D1168A334001E0968A33400C12012610
:1011400006FA04F41688344013B10CB1012000E013
:10115000002070BD10B50022002340F66A14A142A1
:1011600000D100BF0A1201249440A3B2DC430480E2
:1011700010BD00000038014000440040004800401D
:10118000004C00400050004010B50446FA4884422C
:1011900008D101214015FFF7A7FD00216015FFF7D9
:1011A000A3FD17E0F548844208D101210015FFF79F
:1011B0009BFD00212015FFF797FD0BE0F0488442CE
:1011C00008D10121C803FFF78FFD00214FF4004033
:1011D000FFF78AFD10BD30B502460020002350689D
:1011E000E84C20400D790C6844EA05242043506007
:1011F0009068E54C2040D1E902542C434D7944EAF3
:10120000450420439060D06A20F470000C7C641E7A
:10121000E4B2234340EA0350D06230BD00210160B4
:10122000017141718160C16001210174704721B178
:10123000826842F00102826003E0826822F00102CB
:101240008260704721B1826842F48072826003E05C
:10125000826822F480728260704710B50023CBB29E
:101260001AB144681C43446002E044689C434460F3
:1012700010BD816841F0080181607047014600207F
:101280008A6802F008020AB1012000E000207047DD
:10129000816841F0040181607047014600208A683E
:1012A00002F004020AB1012000E00020704721B1E1
:1012B000826842F4A002826003E0826822F4A00205
:1012C00082607047014600208A6802F480020AB1F9
:1012D000012000E00020704710B50A4600210023DD
:1012E000416821F46041531E41EA4331416010BD21
:1012F00021B1426842F40062426003E0426822F495
:10130000006242607047F0B504460D46002000219F
:10131000092D11DDE068A5F10A0606EB4607072650
:1013200006FA07F18843A5F10A0606EB460603FA1A
:1013300006F10843E0600CE0206905EB450707264D
:1013400006FA07F1884305EB450603FA06F1084360
:101350002061072A0FDA606B561E06EB86071F26F0
:1013600006FA07F18843561E06EB860605FA06F1D3
:101370000843606322E00D2A0FDA206BD61F06EBCC
:1013800086071F2606FA07F18843D61F06EB860656
:1013900005FA06F10843206310E0E06AA2F10D06A9
:1013A00006EB86071F2606FA07F18843A2F10D0611
:1013B00006EB860605FA06F10843E062F0BD21B1AE
:1013C000826842F48012826003E0826822F4801214
:1013D000826070470146C86C80B2704766484C30E6
:1013E0000068704721B1426842F48062426003E0C5
:1013F000426822F480624260704721B1426842F440
:101400008052426003E0426822F48052426070479A
:101410000A460021816821F4E04111438160704750
:1014200021B1826842F40042826003E0826822F4C3
:1014300000428260704721B1826842F402128260E9
:1014400003E0826822F402128260704701460020A5
:101450008A6802F400120AB1012000E000207047FF
:10146000F0B504461546002000220026092911DDAA
:10147000E068A1F10A0707EB470C072707FA0CF20F
:101480009043A1F10A0707EB470703FA07F210435D
:10149000E0600CE0206901EB410C072707FA0CF231
:1014A000904301EB410703FA07F210432061A06B60
:1014B000C0F30156EF1C06F1010CA7EB0C0707EB7C
:1014C000870C1F2707FA0CF29043EF1C06F1010C62
:1014D000A7EB0C0707EB870701FA07F21043A0639D
:1014E000F0BD10B50A4600210023816B21F44011A4
:1014F000531E41EA0351816310BD08B500230093D8
:101500000090009B0B440093009B1A6008BD08B537
:10151000024600200090009201F12800009B184430
:1015200000900098006880B208BD0A46002141681A
:10153000164B194011434160704741628262704707
:101540000A460021416821F01F01114341607047A4
:1015500040B109490831096841F40001064A0832DE
:10156000116007E004490831096821F40001024ACA
:10157000083211607047000000240140002801403B
:10158000003C0140FFFEF0FFFDF7F1FFFFFD3FFFD4
:101590000246002013680B400BB1012000E0002040
:1015A0007047CA430260704770B5024600200023AE
:1015B00000240B125568CEB205EA060415681D40DA
:1015C00015B10CB1012000E0002070BD00220A120C
:1015D000D34303607047000010B50446FE488442C0
:1015E00008D10121C014FFF77FFB0021E014FFF7B1
:1015F0007BFBC4E0B4F1804F08D101210846FFF71E
:1016000080FB00210120FFF77CFBB8E0F348844217
:1016100008D101210220FFF774FB00210220FFF70F
:1016200070FBACE0EE48844208D101210420FFF7B2
:1016300068FB00210420FFF764FBA0E0E948844236
:1016400008D101210820FFF75CFB00210820FFF7EB
:1016500058FB94E0E448844208D101211020FFF7B0
:1016600050FB00211020FFF74CFB88E0DF4884424C
:1016700008D101212020FFF744FB00212020FFF7A3
:1016800040FB7CE0DA48844208D101214014FFF796
:101690002BFB00216014FFF727FB70E0D548844244
:1016A00009D10121C804FFF71FFB00214FF40020DE
:1016B000FFF71AFB63E0D048844209D101210805F5
:1016C000FFF712FB00214FF48010FFF70DFB56E0EF
:1016D000CA48844209D101214805FFF705FB0021D2
:1016E0004FF40010FFF700FB49E0C548844208D1E1
:1016F00001214020FFF705FB00214020FFF701FBFF
:101700003DE0C048844208D101218020FFF7F9FA6A
:1017100000218020FFF7F5FA31E0BB48844208D170
:1017200001218015FFF7EDFA0021A015FFF7E9FA76
:1017300025E0B648844209D101210804FFF7D4FA14
:1017400000214FF48030FFF7CFFA18E0B048844210
:1017500009D101214804FFF7C7FA00214FF40030F6
:10176000FFF7C2FA0BE0AB48844208D1012188049C
:10177000FFF7BAFA00214FF48020FFF7B5FA10BD49
:1017800000220288944B98420ED0994B98420BD07D
:10179000B0F1804F08D0914B984205D0904B9842C1
:1017A00002D0904B984204D14FF68F731A404B8869
:1017B0001A438D4B984207D08C4B984204D04FF679
:1017C000FF431A40CB881A4302808B8883850B889D
:1017D0000385814B98420BD0854B984208D08B4BA8
:1017E000984205D08A4B984202D08A4B984201D148
:1017F0000B7A038601238382704770B50024002290
:101800000023058C4FF6FE7635400584028C8388D4
:10181000048B4FF68F752C40B51E2C400D882C4341
:10182000751E2A400D892A434D882A436A4DA842D5
:101830000BD06F4DA84208D0744DA84205D0744D0E
:10184000A84202D0734DA84213D14FF6F7752A4033
:101850004D892A434FF6FB752A408D882A434FF65F
:10186000FF652B404FF6FF552B408D892B43CD89CB
:101870002B4383800483CD888586028470BD70B538
:10188000002400220023058C4FF6EF7635400584B6
:10189000028C8388048B48F6FF752C404FF6FF4579
:1018A0002C400D884FF6FF7606EA05252C434FF6AF
:1018B000DF752A400D8906EA05152A434D8806EA98
:1018C00005152A43444DA84202D0494DA8421DD1D6
:1018D0004FF67F752A404D894FF6FF7606EA0515CB
:1018E0002A434FF6BF752A408D8806EA05152A431C
:1018F0004FF6FF352B404FF2FF752B408D8906EADE
:1019000085052B43CD8906EA85052B438380048317
:10191000CD880587028470BD70B5002400220023A5
:10192000058C4FF6FF6635400584028C8388848BD6
:101930004FF68F752C404FF6FC752C400D882C43CC
:101940004FF6FF552A400D894FF6FF7606EA05252A
:101950002A434D8806EA05252A431F4DA84202D096
:10196000234DA8421DD14FF2FF752A404D894FF6F5
:10197000FF7606EA05252A434FF6FF352A408D8873
:1019800006EA05252A434EF6FF752B404DF6FF75F6
:101990002B408D8906EA05152B43CD8906EA0515EE
:1019A0002B4383808483CD888587028470BD70B586
:1019B000002200230024058C4EF6FF763540058476
:1019C000038C8488828B48F6FF752A404FF6FF45CA
:1019D0002A400D8820E00000002C01400004004057
:1019E00000080040000C00400010004000140040BF
:1019F00000340140004C01400050014000540140BF
:101A000000180040001C0040002000400040014041
:101A100000440140004801404FF6FF7606EA0525E4
:101A20002A434DF6FF752B400D8906EA05352B43F9
:101A30004D8806EA05352B43FA4DA84202D0FA4DEF
:101A4000A84208D14BF6FF752C408D894FF6FF76E2
:101A500006EA85152C4384808283CD88A0F8405007
:101A6000038470BD828B4FF2FF331A408283828BD6
:101A70004FF6FF7303EA01231A4382837047F0B5E0
:101A80000C461546002200210026078C4EF6FF7CEE
:101A900007EA0C070784828B018C4FF6FF7707EA71
:101AA000043640F6FF473A404FF6FF7707EA05272E
:101AB0003A434FF6FF7707EA03373A43D94FB84224
:101AC0000ED0D94FB8420BD0B0F1804F08D0D74FCD
:101AD000B84205D0D64FB84202D0D64FB84206D150
:101AE0004DF6FF77394046F48057394305E047F615
:101AF000FF57394044F48057394382830184F0BD55
:101B0000828B4FF6F3731A408283828B0A4382835F
:101B10007047F0B50C461546002200210026078CC0
:101B20004FF6FF6C07EA0C070784828B018C4FF697
:101B3000FF7707EA04264FF60C773A404FF6FF7717
:101B400007EA03172F433A43B64FB8420ED0B64FB9
:101B5000B8420BD0B0F1804F08D0B44FB84205D096
:101B6000B34FB84202D0B34FB84206D14FF6FF5739
:101B7000394046F48077394305E04FF2FF5739404A
:101B800044F48077394382830184F0BD028B4FF2A5
:101B9000FF331A400283028B4FF6FF7303EA0123DF
:101BA0001A4302837047F0B50C4615460022002107
:101BB0000026078C4FF6EF7C07EA0C070784028BA0
:101BC000018C4FF6FF7707EA041640F6FF473A40CC
:101BD0004FF6FF7707EA03373A434FF6FF7707EAF6
:101BE00005273A438F4FB8420ED08F4FB8420BD0E3
:101BF000B0F1804F08D08D4FB84205D08C4FB8421D
:101C000002D08C4FB84206D14FF6DF77394046F00C
:101C10001007394305E04FF65F77394044F010076D
:101C2000394302830184F0BD028B4FF6F3731A40EF
:101C30000283028B0A4302837047F0B50C461546B7
:101C400000220021068C4FF6FE773E400684028B70
:101C5000018C4FF60C7632407E1C06EA03162E43AA
:101C60003243704EB0420ED06F4EB0420BD0B0F146
:101C7000804F08D06D4EB04205D06D4EB04202D0BC
:101C80006C4EB04206D14FF6FD76314044F001066D
:101C9000314305E04FF6F576314044F0010631431B
:101CA00002830184F0BD70B505460C465D4885424F
:101CB0000ED05D4885420BD0B5F1804F08D05B480F
:101CC000854205D05A48854202D05A48854200D103
:101CD00000E000BF208850B92389A2886188284687
:101CE000FFF7ABFFE1882846FFF79EFF25E020883D
:101CF00004280AD12389A28861882846FFF753FF68
:101D0000E1882846FFF742FF17E0208808280AD11B
:101D10002389A28861882846FFF7FBFEE1882846D0
:101D2000FFF7EEFE09E02389A28861882846FFF7C5
:101D3000A6FEE1882846FFF795FE70BD2DE9F0412B
:101D400005460C4600260127608808B9022600E0F7
:101D50000026A088012801D1022700E00127208861
:101D6000A0B92389A28861882846FFF766FFE18829
:101D70002846FFF759FF23893A4631462846FFF7A0
:101D800012FFE1882846FFF701FF13E02389A288AC
:101D900061882846FFF707FFE1882846FFF7F6FE2F
:101DA00023893A4631462846FFF747FFE18828460F
:101DB000FFF73AFFBDE8F0810A884B881A438B8809
:101DC0001A43CB881A430B891A434B891A438B89D0
:101DD0001A43A0F8442070474FF6FF71818000211C
:101DE0000180C180418001727047002101804180E3
:101DF0008180C180018141818181C1817047002141
:101E000001804180012181800021C18001817047D2
:101E10000021018041808180C180018141818181D7
:101E200070470000002C01400034014000040040D5
:101E300000080040000C004021B1028842F001027D
:101E4000028004E002884FF6FE731A400280704759
:101E500031B1B0F8442042F40042A0F8442005E03B
:101E6000B0F84420C2F30E02A0F8442070471AB123
:101E700083890B43838102E083898B43838170478D
:101E80008182704741EA0203A0F8483070471AB1D6
:101E900083890B43838102E083898B43838170476D
:101EA00001894FF6F8721140018170470A460021FE
:101EB00001894FF68F73194011430181704730B586
:101EC00004460D4629462046FFF7F0FF208940F0E2
:101ED0000700208130BD2DE9F04104460D4616462D
:101EE0001F46602D06D13B46012231462046FFF7B2
:101EF0005AFE05E03B46012231462046FFF79DFE93
:101F000029462046FFF7D2FF208940F007002081B4
:101F1000BDE8F08130B50C4600210189C9B24FF609
:101F2000FF7505EA0325154325432943018130BD8B
:101F30002DE9F04105460E461746984600244346D3
:101F40003A4631462846FFF7E5FF2C894FF6F870F0
:101F5000044044F007044FF68F70044044F07004CE
:101F60002C81BDE8F081F0B504460D4616461F46AB
:101F70003B46324629462046FFF7CCFF208940F4F5
:101F800080402081F0BD0185828270470A46002191
:101F900001884FF68F731940114301807047F0B5E7
:101FA0000C4615461E460021002200230189028BA3
:101FB000038C4FF6F877394021434FF6FC473A40FF
:101FC00040F201173A434FF6DD773B404FF6FF777B
:101FD00007EA06172F433B43018102830384F0BDC8
:101FE0000A460021018B4FF68F731940114301837C
:101FF00070470A460021018B48F6FF7319404FF6DF
:10200000FF7303EA02231943018370470A46002144
:10201000818B4FF68F7319401143818370470A46B5
:102020000021818B48F6FF7319404FF6FF7303EAD6
:10203000022319438183704721B1028842F0800254
:10204000028004E002884FF67F731A4002807047D6
:1020500021B1828842F00402828004E082884FF637
:10206000FB731A408280704721B1828842F00802D7
:10207000828004E082884FF6F7731A4082807047AE
:1020800021B1828842F00102828004E082884FF60A
:10209000FE731A40828070470A460021018B4FF67A
:1020A000F77319401143018370470A460021018BE1
:1020B0004FF2FF7319404FF6FF7303EA02231943EF
:1020C000018370470A460021818B4FF6F773194050
:1020D0001143818370470A460021818B4FF2FF73C1
:1020E00019404FF6FF7303EA0223194381837047B7
:1020F0000A460021018B4FF6FB73194011430183FF
:1021000070470A460021018B4FF6FF3319404FF606
:10211000FF7303EA02231943018370470A46002133
:10212000818B4FF6FB7319401143818370470A4638
:102130000021818B4FF6FF3319404FF6FF7303EAFE
:1021400002231943818370470A460021018B4FF611
:102150007F7319401143018370470A460021018BA8
:10216000C1F30E014FF6FF7303EA02231943018303
:1021700070470A460021818B4FF67F731940114347
:10218000818370470A460021818BC1F30E014FF60F
:10219000FF7303EA02231943818370470A46002133
:1021A000018C4FF6FD7319401143018470470A46B4
:1021B0000021018C4FF6F7731940114301847047D9
:1021C0000A460021018C4FF6DF7319404FF6FF736A
:1021D00003EA02131943018470470A460021018C67
:1021E0004FF67F7319404FF6FF7303EA021319434A
:1021F000018470470A460021018C4FF6FF531940B5
:102200004FF6FF7303EA02231943018470470A461D
:102210000021018C4FF2FF7319404FF6FF7303EA60
:1022200002231943018470470A460021018C4DF6B0
:10223000FF7319404FF6FF7303EA02331943018419
:10224000704730B5002301248C40A3B2048C9C431A
:102250000484048C02FA01F5ADB22C43048430BD31
:1022600030B5002304248C40A3B2048C9C43048426
:10227000048C02FA01F5ADB22C43048430BD70B574
:102280000346002000241846183001258D40ACB2CA
:102290001D8CA5431D8409B1082909D100EB6100FB
:1022A000056825F0700505600568154305600EE0BA
:1022B0000D1FC5F34E052844056825F4E04505606B
:1022C00005684FF6FF7606EA02263543056070BDC5
:1022D00021B1028842F00202028004E002884FF637
:1022E000FD731A400280704721B1028842F0040257
:1022F000028004E002884FF6FB731A4002807047A8
:1023000021B1828842F08002828004E082884FF608
:102310007F731A408280704702884FF6F7731A4025
:10232000028002880A430280704782884FF68F73CA
:102330001A40828082880A438280704702894FF661
:10234000F8731A40028102890A43028170470289A8
:102350004FF67F731A40028102890A430281704757
:1023600081847047818570478186704701877047F7
:1023700081877047A0F84010704702884FF6FF43EE
:102380001A40028002880A43028070470146888E04
:1023900070470146088F70470146888F7047014695
:1023A000B1F8400070470146888C70470146088D9F
:1023B000704702460020138A0B400BB1012000E059
:1023C00000207047CA430282704730B502460020A1
:1023D00000230024158A05EA0103958905EA010412
:1023E00013B10CB1012000E0002030BDCA430282CD
:1023F00070470000002044490860091D0860091D5D
:102400000860091D086041483F4914310860704761
:1024100000213D498279002A3AD00A4612680368B1
:102420009A430B461A600A1D126803689A430B1DF3
:102430001A60027911440A6803681A430A60324A32
:102440000832126803689A432F4B08331A601A1D2A
:10245000126803689A432C4B0C331A604279102A95
:102460000ED11A1F126803681A43274B08331A60EB
:102470001A1D126803681A43234B0C331A600DE0CF
:102480002149427911440A6803681A430A6005E049
:10249000027911440A6803689A430A607047002170
:1024A000016001710C214171002181717047164951
:1024B000103109680143144A103211607047014617
:1024C0000020114A143212680A400AB1012000E0CB
:1024D000002070470C491431086070470146002005
:1024E0000022094B1B6803EA0102074B14331B68E7
:1024F0000B4013B10AB1012000E0002070470249EF
:10250000143108607047000000040140FFFF0F0015
:102510000E49086070470D49486070470B49886054
:1025200070474AF6AA200949086070474CF6CC402B
:1025300006490860704701460020044AD2680A40F4
:102540000AB1012000E00020704700000030004088
:1025500010B50446BE48844208D101218014FEF71C
:10256000C3FB0021A014FEF7BFFB16E0B94884426C
:1025700008D101210014FEF7C4FB00212014FEF74E
:10258000C0FB0AE0B448844207D10121C013FEF722
:10259000B8FB0021E013FEF7B4FB10BD10B500221C
:1025A000028802F441520B884C8823438C882343D1
:1025B000CC8823430C8923434C8923438C892343B0
:1025C000CC8923431A430280838B4FF2FF7423404C
:1025D00083830B8A038210BD2DE9F04F85B0054639
:1025E0000C464FF0000902274FF000084FF0010B96
:1025F0000026B246A88B4FF240010840A883022073
:102600002884B5F81C90A068022801D100BF38E0EA
:10261000A08810B94FF0010B01E04FF0020B8D487C
:10262000854200D100E000BF6846FEF7D6FADDF82B
:1026300000A0E088B0F5007F0AD14FEA1A2000EB35
:1026400080004000A168B0FBF1F0401D86B20BE0B5
:102650004FEA4B10BAFBF0F000EB80004000A1689D
:10266000B0FBF1F0401D86B20A20B6FBF0F606F092
:102670000108A6EB0800C0F34F074FF6FF7000EA11
:102680000828022F01DBFF2F02DD02274FF0000890
:10269000E08840EA080038432884A088A1890843DC
:1026A000618808432188084340F4006040EA090932
:1026B000A5F81C9005B0BDE8F08F00210180418095
:1026C0008180C180018141818181C1810721018295
:1026D00070470021018041808180C180022181609A
:1026E00000218181704721B1028842F040020280BE
:1026F00004E002884FF6BF731A400280704721B190
:10270000828B42F48062828304E0828B4FF6FF3337
:102710001A408283704730B5002400230C11012534
:10272000A540ABB21AB185881D43858002E085883B
:102730009D43858030BD1AB183880B43838002E0BE
:1027400083888B43838070478181704701468889E5
:1027500070474FF6FF62914204D0028842F48072C3
:10276000028004E002884FF6FF631A40028070473F
:1027700021B1828842F00402828004E082884FF610
:10278000FB731A408280704702884FF2FF731A4031
:10279000028002880A4302807047018841F4805118
:1027A0000180704721B1028842F40052028004E0A7
:1027B00002884DF6FF731A400280704702460020DF
:1027C000012901D0108B00E0908A70470146088AE9
:1027D0007047B1F5804F04D1028842F480420280F4
:1027E00004E002884BF6FF731A40028070470246ED
:1027F000002013890B400BB1012000E0002070473E
:10280000CA4302817047F0B502460020002400232D
:10281000002501F00F070126BE40B4B20B110126BE
:102820009E40B3B2968806EA03051689264016B183
:102830000DB1012000E00020F0BD10B5002201F034
:102840000F040123A3409AB2D343038110BD0000BB
:102850000030014000380040003C004070B50546A3
:102860000C4645F25550FFF753FE2846FFF753FE3E
:102870002046FFF753FEFFF754FEFFF757FE70BDEB
:1028800010B5FFF74EFE10BD86B001A8FEF7A5F902
:1028900000F05AF800F0CFF902211E48FDF7FBFFC7
:1028A00000F0C0FC4FF4612002F02AF84FF4E12060
:1028B00000F094FA4FF4E13001F010FD01F09AFBC2
:1028C00000F02AFF00221146642000F0F9F940F2DE
:1028D000CF21092000F0DFF800F0C8F800F03AFC42
:1028E00000225021322000F0EBF911E042F210708A
:1028F00000F05FF84FF480710748FDF7B2FF074919
:1029000008704FF400710448FDF7ABFF04490870EC
:10291000ECE7000000080140000C014030000020FE
:1029200031000020704700BFFEE700BFFEE700BF98
:10293000FEE700BFFEE770477047704710B500F034
:102940004AF810BD7047000030B527480068274A94
:10295000B0FBF2F1B1F1807F01D301201DE021F045
:102960007F40401E4FF0E022506150170F22002898
:1029700007DA13071D0E1E4B00F00F04241F1D5510
:1029800003E013071C0E1B4B1C5400BF00204FF02C
:10299000E022906107201061002008B100BFFEE72F
:1029A0004FF0E020006920F001004FF0E0210861C5
:1029B00030BD01B51049009808604FF0E020006973
:1029C00040F001004FF0E021086100BF0A480068B4
:1029D0000028FBD108BD0848006820B106480068FF
:1029E000401E0549086070470000002040420F006B
:1029F00018ED00E000E400E03400002070B503466C
:102A0000002513E013F8016B82EA0622002409E096
:102A100002F4004020B148F2050080EA420200E0E2
:102A20005200641C082CF3DB6A40491E0029E9D1DE
:102A300090B270BD30B502460020002304E012F8C9
:102A4000014B60405C1CE3B28B42F8DB30BD10B53B
:102A500002460B460020002100BF04E0545C044401
:102A6000E0B24C1CE1B29942F8DB10BD08B54FF45E
:102A7000C060FDF76BFC1C208DF8000000208DF875
:102A8000010007208DF8020001208DF80300684640
:102A9000FDF761FC08BD3EB505460C460121084620
:102AA000FEF715F9ADF80450ADF800400020ADF880
:102AB0000600ADF8020069464FF08040FEF760FE68
:102AC00001218807FFF77EFC012211469007FFF7DE
:102AD000CEF901218807FFF7AFF93EBD10B50121FE
:102AE0008807FFF783FC01F074F801F0A5FE1D488C
:102AF0000068401C1B4908600846006844F62061D5
:102B0000884204D900201749086001F0E6FA164807
:102B10000068401C144908600846006842F21071C1
:102B2000884204D300201049086001F0F4F80F48EF
:102B30000088401C0D4908800846008841F2883111
:102B400088420EDD002009490880094800780128E4
:102B500007D001200649087000226421104600F0C9
:102B6000AFF810BD40000020480000203C000020CD
:102B70004400002008B501211020FEF79BF84820F2
:102B80008DF8030003208DF802000420ADF800004A
:102B900069462E48FDF7D2FD10208DF80300032072
:102BA0008DF802000220ADF8000069462748FDF7C5
:102BB000C5FD08BD08B501210420FEF77BF81020F3
:102BC0008DF8030003208DF802000220ADF800000C
:102BD00069461F48FDF7B2FD02211D48FDF75DFE65
:102BE00008BD08B501210820FEF764F810208DF813
:102BF000030003208DF802002020ADF80000694694
:102C00001448FDF79BFD08BD08B501210920FEF71A
:102C100051F801211048FDF762FE28208DF80300CD
:102C200003208DF802000002ADF800006946094853
:102C3000FDF784FD08BD10B5FFF79CFFFFF7D1FF3E
:102C4000FFF7B8FFFFF7E0FF10BD000000100140E4
:102C500000080140000C01400002300070B505463C
:102C60000024002629E005F0800080B120214C4896
:102C7000FDF711FE002401E000BF641CB4F5FA6FFB
:102C8000FADB20214648FDF708FE00BF11E02021B5
:102C90004348FDF700FE00BF00BF00BF20214048B1
:102CA000FDF7FBFD002401E000BF641CB4F57A7F52
:102CB000FADB6806050E701CC6B2082ED3DB70BDA9
:102CC00070B506460C4615462046FFF7C7FF30464E
:102CD000FFF7C4FF2846FFF7C1FF70BD10B50446DB
:102CE000224600210846FFF7EBFF10BD10B5044651
:102CF000002221462046FFF7E3FF10BD10B5002457
:102D00002848007808BB04212748FDF7AAFD0128C0
:102D10001BD114E02548FFF74CFE601CC4B20A2CFE
:102D20000DDD002402212048FDF7B5FD00BF042180
:102D30001D48FDF796FD0028F9D0002010BD0421A4
:102D40001948FDF78EFD0128E4D00120F6E710B503
:102D500004211548FDF785FD01281CD114480068A1
:102D6000401C134908600846006847F23051884209
:102D700014D900200E490860002211461046FFF7C2
:102D80009FFF00F0AEFF01200649087002210648AF
:102D9000FDF783FD02E000200549086010BD00003A
:102DA000000C01405000002000100140A0860100EE
:102DB0004C00002008B54FF4C060FDF7C7FA26208C
:102DC0008DF8000000208DF8010001208DF8020030
:102DD0008DF803006846FDF7BEFA08BD10B590B047
:102DE000044601214804FDF772FF01210520FDF78B
:102DF00061FF01210846FDF750FF18208DF83F00C4
:102E000003208DF83E000420ADF83C000FA9974840
:102E1000FDF794FC04208DF83F000820ADF83C003D
:102E20000FA99248FDF78AFC0B940020ADF8300002
:102E3000ADF83200ADF83400ADF838000C20ADF834
:102E400036000BA98A48FDF7DEFF012240F224413B
:102E50008748FEF770F801218548FEF760F84021A9
:102E60008348FEF744F9012280218148FEF788F863
:102E7000012240217E48FEF783F87E48FDF7D4FA10
:102E80007B48001D00907C4801901020029001209A
:102E90000390002004908020059000200690079069
:102EA00008904FF40050099000200A90694671483C
:102EB000FDF75CFB01216F48FDF783FB6D4814387B
:102EC000FDF7B2FA6A48001D00906C48019000209E
:102ED0000290802003900020049080200590002024
:102EE0000690079008904FF40050099000200A9037
:102EF000694660481438FDF739FB01215D481438F4
:102F0000FDF75FFBFFF756FF10B010BD70B504462C
:102F10000D4600BF4FF00070FDF76EFB0028F9D0A2
:102F20004FF00070FDF77CFB00215248FDF749FB94
:102F300029465048FDF75AFB4E480C3004600121E9
:102F40004C48FDF73EFB70BD10B5002440F2244113
:102F50004748FEF7D5F808B3002146481438FDF776
:102F600030FB43480088C4B24148001D0088C4B209
:102F700000BF40481438FDF73BFBC0F180004049DA
:102F8000088080213B481438FDF730FB0121394887
:102F90001438FDF716FB01203A49087010BD70B5D2
:102FA00005460024AA2038490870BB204870CC2070
:102FB0008870DD20C870C42008714C20487100BFA3
:102FC0001FE055F82400000E062101EB84012E4A73
:102FD000505455F82400C0F30740072101EB840149
:102FE000505435F82400C0F30720082101EB840178
:102FF000505415F82400092101EB84015054601C41
:10300000C4B2102CDDDB002246211F48FFF7F6FC7E
:1030100000121D4981F84600002246211A48FFF798
:10302000EDFC194981F84700DD2081F84800CC20EB
:1030300081F84900BB2081F84A000A2081F84B0042
:103040004C21114801F0F5FC70BD70B504460D46E9
:103050002A4621460D4801F0ADFD0C480078AA280B
:1030600003D02946094801F0D9F970BD0008014094
:10307000004400408000024052000020A4000020D4
:103080005400002056000020880100202401002068
:1030900000B587B0012141F20400FDF70BFEE020EE
:1030A000ADF8180003208DF81A0018208DF81B00C9
:1030B00006A97148FDF742FB0020ADF804004FF46B
:1030C0008270ADF806000020ADF80800ADF80A00E7
:1030D0000120ADF80C004002ADF80E000820ADF85C
:1030E00010000020ADF812000720ADF8140001A96F
:1030F0006248FFF753FA01216048FFF7F4FA07B07E
:1031000000BD08B501210420FDF7D4FD01210820F0
:10311000FDF7D0FD01210846FDF7CCFD1020ADF8EC
:10312000000003208DF8020010208DF8030069468E
:103130005148FDF703FB4FF48070ADF80000032009
:103140008DF8020010208DF8030069464A48FDF70B
:10315000F5FA08BD1FB501211020FDF7ABFD1020C9
:10316000ADF80C0004208DF80F0003A94448FDF7CA
:10317000E5FA1020FFF7C3F904210220FDF7F4FB64
:103180001020019000208DF808000C208DF8090017
:1031900001208DF80A0001A8FFF73AF94FF4A0606A
:1031A000FDF7D4F80A208DF8000000208DF801000A
:1031B0008DF8020001208DF803006846FDF7CBF87A
:1031C0002020ADF80C0004208DF80F0003A92C4836
:1031D000FDF7B4FA2020FFF792F905210220FDF750
:1031E000C3FB2020019000208DF808000C208DF8F2
:1031F000090001208DF80A0001A8FFF709F94FF432
:10320000A060FDF7A3F817208DF8000000208DF8CE
:1032100001008DF8020001208DF803006846FDF7DB
:103220009AF81FBD10B5FFF733FFFFF76AFF10BD17
:103230000246002105E0481CC1B2C82901DD00207A
:1032400070470E48008900F002000028F3D00B48B8
:103250008281002105E0481CC1B2C82901DD00209F
:10326000EEE70648008900F001000028F3D003488B
:103270008089C0B2E4E7000000080140003001404E
:103280000010014070B505460C46012C15D109020D
:10329000FB48FDF700FB1021F948FDF7FEFA0A2074
:1032A000FFF787FB2846FFF7C3FF0A20FFF781FBE4
:1032B0001021F348FDF7EFFA16E0022C14D110218B
:1032C000EF48FDF7E8FAE101ED48FDF7E6FA0A20DC
:1032D000FFF76FFB2846FFF7ABFF0A20FFF769FBFC
:1032E000E101E748FDF7D7FA70BD10B50446214665
:1032F0001120FFF7C7FF21460220FFF7C3FF214639
:103300000620FFF7BFFFDF48FFF753FB21461120E0
:10331000FFF7B8FF21460A20FFF7B4FF10BD2DE9E3
:10332000F04107460E4615469846B8F1010F09D1FF
:103330004FF48071D248FDF7AEFA1021D048FDF766
:10334000ACFA0BE0B8F1020F08D11021CC48FDF720
:10335000A2FA4FF48071CA48FDF79FFA0A20FFF7DE
:1033600028FB3846FFF764FF0A20FFF722FB711E97
:10337000C8B2FFF75DFF07F0400068B1002408E025
:103380000A20FFF716FB2878FFF752FF6D1C601C20
:10339000C4B2B442F4DB10E007F0200068B10024AE
:1033A00009E00A20FFF705FB0020FFF741FF287026
:1033B0006D1C601CC4B2B442F3DB0A20FFF7F9FABB
:1033C0001021AF48FDF767FA4FF48071AC48FDF764
:1033D00062FABDE8F08110B504462346AA4A1821D6
:1033E0004020FFF79CFF10BD10B504462146112078
:1033F000FFF748FF21460A20FFF744FF10BD0146B2
:10340000062901DD012070479F48407800F0F80050
:1034100001F0070210439C4A50700020F3E7024677
:10342000062901DD01207047092A5ED2DFE802F09B
:103430005D05101B26313C4752009348407900F04F
:103440008F00702303EA011318438F4B58714DE02E
:103450008D48807900F08F00702303EA0113184330
:10346000894B987142E08848C07900F08F00702342
:1034700003EA01131843844BD87137E08248007A7D
:1034800000F08F00702303EA011318437E4B18727B
:103490002CE07D48407A00F08F00702303EA01138E
:1034A0001843794B587221E07748807A00F08F00FA
:1034B000702303EA01131843734B987216E07248A5
:1034C000C07A00F08F00702303EA011318436E4B9B
:1034D000D8720BE06C48007B00F08F00702303EA89
:1034E00001131843684B187300E000BF00BF0020B1
:1034F00099E710B5044621460120FFF790FF2146C9
:103500000220FFF78CFF21460320FFF788FF2146AA
:103510000420FFF784FF21460520FFF780FF2146A6
:103520000620FFF77CFF21460720FFF778FF2146A2
:103530000820FFF774FF10BD0146072901DD0120B7
:1035400070475148407900F0F80001F0070210433D
:103550004D4A50711046807900F0F80001F00702E2
:103560001043494A90711046C07900F0F80001F00C
:1035700007021043444AD0711046007A00F0F80068
:1035800001F007021043404A10721046407A00F0E2
:10359000F80001F0070210433B4A50721046807A4F
:1035A00000F0F80001F007021043374A907210460D
:1035B000C07A00F0F80001F007021043324AD072DE
:1035C0001046007B00F0F80001F0070210432E4A7D
:1035D00010730020B4E701462B4841730020704768
:1035E000014621B1FF20284AD073107403E0002067
:1035F000254AD07310740020704770B586B0054618
:1036000000262B466A4618212020FFF788FE00245A
:103610001AE01D48005D1DF80410884211D07CB1ED
:10362000122C0DD0132C0BD0142C09D0092C07D040
:103630000A2C05D00B2C03D00C2C01D0012600E065
:1036400000E000BF601CC4B2182CE2DB304606B0BC
:1036500070BD10B504462046FFF747FE2046FFF731
:10366000BAFE2046FFF7C9FF10BD10B5044621463B
:103670001020FFF707FE21460820FFF703FE10BDCC
:1036800000080140A08601005900002070B50546E1
:10369000012D1BD101024F48FDF7FDF810214D48C7
:1036A000FDF7FBF8002406E00020FFF7C1FD4A49C2
:1036B0000855601CC4B21B2CF6DB1B22464901F1E5
:1036C0001B0001F077FA00F080FF1BE0022D19D1FA
:1036D00010214048FDF7DFF8E9013E48FDF7DDF82D
:1036E000002407E00020FFF7A3FD01463B480155F9
:1036F000601CC4B21B2CF5DB1B22384901F11B00F6
:1037000001F058FA10213348FDF7C5F84FF48071E5
:103710003048FDF7C0F870BD10B50120FFF7E5FD9A
:103720000120FFF758FE0120FFF75EFE02E02C4863
:10373000FFF73FF90120FFF78CFF0028F7D10120A8
:10374000FFF793FF082024491039C8700846C07855
:1037500000EB40008880002010BD10B50220FFF76C
:10376000C4FD0220FFF737FE0220FFF73DFE02E016
:103770001B48FFF71EF90220FFF76BFF0028F7D167
:103780000220FFF772FF082013491039C87008465D
:10379000C07800EB40008880002010BD10B51148B3
:1037A000007848B910211048FDF75BF8012810D0C7
:1037B0000120FFF76BFF0CE00A480078012808D1D0
:1037C00020210948FDF74DF8012802D00220FFF71B
:1037D0005DFF10BD00080140E4010020E40300206B
:1037E00020A10700580000200010014030B589B02A
:1037F00005460C460121C802FDF75CFA01210420B0
:10380000FDF758FA01210820FDF754FA4FF4604003
:10381000ADF8040018208DF8070003208DF806008D
:1038200001A9FE48FCF78AFF4FF40060ADF80400E0
:1038300018208DF8070003208DF8060001A9F8482C
:10384000FCF77CFFADF81C50ADF818400020ADF837
:103850001E00ADF81A008DF8200006A9F148FDF70A
:103860008FFF02A8FEF7C1FA6020ADF80800012022
:10387000ADF80A000020ADF80E00ADF81000ADF86C
:1038800012000420ADF80C000020ADF81400ADF8D3
:10389000160002A9E348FDF7B0FF02A9E148FDF7D1
:1038A000ACFF02A9DF48FDF7EAFF02A9DD48FEF7F9
:1038B00033F802A9DB48FEF77AF80821D948FEF769
:1038C000EBFB0821D748FEF7F0FB0821D548FEF7AF
:1038D000F9FB0821D348FEF7FEFB0121D148FEF792
:1038E000ABFB0121CF48FEF7B3FA0121CD48FEF72B
:1038F000A3FA09B030BD30B589B005460C460121A8
:103900000220FDF7E4F901210820FDF7D3F9032097
:10391000ADF8040018208DF8070003208DF806008C
:1039200001A9BE48FCF70AFFADF81C50ADF81840DD
:103930000020ADF81E00ADF81A008DF8200006A991
:10394000B948FDF71DFF6020ADF808000120ADF873
:103950000A000020ADF80E00ADF8100002A9B24830
:10396000FDF7DAFF02A9B048FEF721F80821AE48BA
:10397000FEF7A8FB0821AC48FEF7ADFB0121AA48E1
:10398000FEF75AFB0121A848FEF756FA09B030BDF0
:1039900030B589B005460C4601210420FDF797F9A2
:1039A00001210820FDF786F94FF44070ADF80400BE
:1039B00018208DF8070003208DF8060001A997480C
:1039C000FCF7BCFEADF81C50ADF818400020ADF877
:1039D0001E00ADF81A008DF8200006A99348FDF7E7
:1039E000CFFE6020ADF808000120ADF80A000020ED
:1039F000ADF80E00ADF8100002A98C48FDF78CFF61
:103A000002A98A48FDF7D3FF08218848FEF75AFB30
:103A100008218648FEF75FFB01218448FEF70CFB76
:103A200001218248FEF708FA09B030BD30B589B0EF
:103A300005460C4601210820FDF749F9012108201F
:103A4000FDF738F90320ADF8040018208DF80700C1
:103A500003208DF8060001A97148FCF76FFEADF850
:103A60001C50ADF818400020ADF81E00ADF81A004B
:103A70008DF8200006A96E48FDF782FE6020ADF8A3
:103A800008000120ADF80A000020ADF80E00ADF8E6
:103A9000100002A96648FDF7B0FE02A96448FDF7D0
:103AA000EEFE08216248FEF7F7FA08216048FEF7AB
:103AB000FCFA01215E48FEF7BFFA01215C48FEF7DF
:103AC000BBF909B030BD30B589B005460C460121BF
:103AD0004803FDF7EFF801211120FDF7EBF84FF453
:103AE0007070ADF8040018208DF8070003208DF8E1
:103AF000060001A94F48FCF721FEADF81C50ADF8B7
:103B000018400020ADF81E00ADF81A008DF8200016
:103B100006A94948FDF734FE02A8FEF766F96020C1
:103B2000ADF808000120ADF80A000020ADF80E0045
:103B3000ADF8100002A94048FDF75FFE02A93E481B
:103B4000FDF79DFE02A93C48FDF7E6FE02A93A48B2
:103B5000FDF72DFF08213848FEF79EFA0821364868
:103B6000FEF7A3FA08213448FEF7ACFA08213248E0
:103B7000FEF7B1FA01213048FEF75EFA01212E4826
:103B8000FEF766F901212C48FEF756F909B030BD61
:103B900010B5012140F62720FFF728FE012140F64D
:103BA0002720FFF7A8FE012140F62720FFF7F0FEAF
:103BB000012140F62720FFF786FF10BD10B5194CF4
:103BC000403420801A4C38342180184C3C342280F8
:103BD00010BD00B519480078002859D11848007860
:103BE00080BB17484068401C15494860084640683B
:103BF000322857D30020486008464088801C4880FF
:103C00000846408840F62721884204DB08460C49D4
:103C10004880012008700A4B5A8814E0000C0140CB
:103C200000080140002C0140000400400008004052
:103C3000000C004000100140003401405000002002
:103C40007800002004E059885888FFF7B7FF29E082
:103C5000E0484068401CDF494860084640680A2840
:103C600020D30020486008464088401E488008460F
:103C70004088B0F5FA7F04DC4FF4FA7048800020E9
:103C80000870D44B5A8859885888FFF797FF09E085
:103C900040F62720CF4948800B465A8859885888D3
:103CA000FFF78CFF00BD4FF4FA70CA49488000202E
:103CB000C9490880091D0880091D088040F6272091
:103CC000C6490880091D0880C5490880C549088083
:103CD000C5490880091D0880091D0880091D088044
:103CE000704740F62720BC490880091D0880091D3F
:103CF00008800020B9490880091D0880B84908805B
:103D0000B8490880B8490880091D0880091D088045
:103D1000091D0880704710B5B448007800287DD18F
:103D200000F036FF0C2190FBF1F201FB1200B049CC
:103D30000870084600780C2821D2DFE800F0062140
:103D40003E587491AECBE8E9FEFD0020A249088000
:103D500040F62720091D0880091D088000209F4982
:103D60000880091D08809E4908809E4908809E4958
:103D70000880091D0880091D0880091D088020E1B0
:103D800040F62720944908800020091D088040F64D
:103D90002720091D0880002090490880091D0880FF
:103DA0008F4908808F4908808F490880091D088045
:103DB000091D0880091D088003E140F62720864977
:103DC0000880091D08800020091D0880834908809B
:103DD000091D08808249088082490880824908803C
:103DE000091D0880091D0880091D0880E9E040F6CA
:103DF000272079490880091D0880091D0880774916
:103E000008800020091D08807549088075490880D0
:103E100075490880091D0880091D00E0D2E008806E
:103E2000091D0880CDE040F627206B490880091D58
:103E30000880091D088000206849088040F6272076
:103E4000091D088000206649088066490880664987
:103E50000880091D0880091D0880091D0880B0E040
:103E600040F627205C490880091D0880091D08804C
:103E700000205A490880091D088040F6272058492B
:103E8000088000205749088057490880091D08808C
:103E9000091D0880091D088093E040F627204E493F
:103EA0000880091D0880091D088000204B490880F2
:103EB000091D08804A49088040F6272049490880A2
:103EC000002049490880091D0880091D0880091D36
:103ED000088076E040F627203F490880091D0880C9
:103EE000091D088000203D490880091D08803C49C3
:103EF00008803C49088040F627203B490880002084
:103F0000091D0880091D0880091D088059E058E036
:103F100040F6272030490880091D0880091D0880C7
:103F200000202E490880091D08802D4908802D4950
:103F300008802D49088001E027E009E040F62720AD
:103F4000091D08800020091D0880091D088038E02F
:103F500040F6272020490880091D0880091D088097
:103F600000201E490880091D08801D4908801D4940
:103F700008801D490880091D088040F62720091D7A
:103F800008800020091D08801BE040F62720124908
:103F90000880091D0880091D088000200F4908803D
:103FA000091D08800E4908800E4908800E490880C6
:103FB000091D0880091D088040F62720091D08807A
:103FC00000BF06E0FFF78DFE002211461046FEF707
:103FD00077FE10BD78000020342C01403C040040E6
:103FE00040080040340C00403434014050000020B0
:103FF0008000002000B591B001211020FCF75AFE8E
:1040000001214802FCF756FE01210846FCF745FE57
:104010000120ADF8400000208DF8430010A966484B
:10402000FCF78CFB00200B908DF8300001208DF800
:1040300031004FF460200D9000200E9001208DF88B
:104040003C000BA95D48FDF7C6F8072301220A21B1
:104050005A48FDF758F901215848FDF7F3F80121B6
:104060005648FDF7E4F85548FDF703F900BF5348FB
:10407000FDF704F90028FAD15048FDF709F900BF0F
:104080004E48FDF70AF90028FAD14D48FCF7CCF963
:104090004A484C3000904B48019000200290642028
:1040A000039000200490802005904000069080003E
:1040B0000790202008900002099000200A9069468D
:1040C0003F48FCF753FA01213D48FCF77AFA0121F9
:1040D0003A48FDF7ECF811B000BD2DE9FC474FF070
:1040E000000A00BF0FE03748801ED0F8CC10801CBB
:1040F00030F81A0008443349891EC1F8CC000AF18F
:10410000010000F0FF0ABAF1640FECDB2D48801EBD
:10411000D0F8CC006421B0FBF1F02A49891EA1F847
:10412000CA000020C1F8CC00B1F8CA0000F0B5FF09
:104130000646254A254B00F0BEFE044600F0FFFF70
:104140002049891EC1F8D000D1F8D000204900F0E4
:104150009BFD05461F4900F0C9FD04461948801E15
:10416000D0F8D010204600F037FD1649891EC1F85E
:10417000D400D1F8D40000F0CFFF06460022164B41
:1041800000F093FE154A164BCDE9000100F005FF43
:1041900004460022134B00F08EFE804600F0A3FF81
:1041A0000849891E087008460078642801DD6420EB
:1041B0000870BDE8FC8700000010014000240140A9
:1041C000080002400E060020B4D934E70C684A3FCC
:1041D000000020410000A041000008403433333388
:1041E0003333F33F0000594000210160704770B540
:1041F00005460E46202001F0EFF804461CB922A027
:1042000001F090F870BD002002E0315C2154401CA8
:104210001B28FADB0020E061286808B92C6007E061
:10422000286800E0C069C1690029FBD1C46100BFF2
:1042300000BFE7E770B504460E46206818B919A01C
:1042400001F070F870BD2568002002E0295C31544F
:10425000401C1B28FADB2068C0692060284601F05A
:1042600093F8002500BFEDE7014609B9012070472A
:104270000020FCE7014600200A4601E0401CD2690C
:10428000002AFBD1704700004D656D6F7279206187
:104290006C6C6F636174696F6E206661696C6564D4
:1042A000210A00004C69737420697320656D707475
:1042B00079210A0008B54FF4C060FCF747F83420B4
:1042C0008DF8000000208DF8010001208DF802001B
:1042D0008DF803006846FCF73EF808BD10B590B0B5
:1042E000044601210220FCF7D8FC01211120FCF733
:1042F000E1FC0121C804FCF7EAFC4FF40060ADF8D2
:104300003C0004208DF83F000FA98C48FCF716FAFA
:104310004FF48060ADF83C0018208DF83F0003207A
:104320008DF83E000FA98548FCF708FA0B94002091
:10433000ADF83000ADF83200ADF83400ADF838001B
:104340000C20ADF836000BA97D48FCF75CFD01227E
:1043500040F224417A48FCF7EEFD01217848FCF751
:10436000DEFD40217648FCF7C2FE01228021744820
:10437000FCF706FE012240217148FCF701FE71485E
:10438000FCF752F86846FCF70FF96D48001D0090E5
:104390006D480190102002900120039000200490AD
:1043A0008020059000200690079008904FF4405020
:1043B000099000200A9069466248FCF7D7F801216D
:1043C0006048FCF7FEF86148FCF749F95D48283879
:1043D000FCF72AF85A48001D00905D480190002023
:1043E000029064200390002004908020059000201B
:1043F0000690079008904FF40050099000200A9012
:10440000694650482838FCF7B1F801214D48283852
:10441000FCF7D7F8FFF74EFF10B010BD70B504469B
:104420000D4600BF4B48FCF7E7F80028FAD0494892
:10443000FCF7F6F800214348FCF7C3F82946414849
:10444000FCF7D4F83F480C30046001213D48FCF7EC
:10445000B8F870BD10B5002440F224413848FCF78C
:104460004FFE10B3002137482838FCF7AAF834482B
:104470000088C4B23248001D0088C4B26006040E31
:1044800030482838FCF7B4F8C0F16400324908809D
:1044900064212C482838FCF7A9F80121294828383C
:1044A000FCF78FF801202D49087010BD10B50446A7
:1044B00022202B49087001204870232088700D208D
:1044C000C87004212648FFF7A9FF10BD10B50446A7
:1044D00041202349087001204870422088700D2037
:1044E000C87004211E48FFF799FF10BD10B504469F
:1044F00011201B49087001204870122088700D207F
:10450000C87004211648FFF789FF10BD70B5044636
:104510000D462A462146134800F04CFB2946114817
:1045200000F087FA29460F48FEF7F0FC0D480078A6
:10453000252802D10C48FEF732FD70BD0010014065
:10454000004C00405804024082000020000200108D
:10455000E4060020000002108400002086000020F5
:1045600087000020480700203403002010B5C4480D
:10457000006800F0100068B11021C248FCF771F922
:1045800040B9C148007810B90120FFF77FF810202A
:10459000FDF7B5FF10BD10B5B948006800F0200068
:1045A00068B12021B748FCF75CF940B9B6480078FB
:1045B00010B90220FFF76AF82020FDF7A0FF10BD18
:1045C000014608460002001270472DE9F047182204
:1045D000AE4901F1180000F0EDFA1822AC4901F1E2
:1045E000180000F0E7FA4FF0000AF9E00AEB4A0180
:1045F000A6481830405C02040AEB4A00401CA3495C
:104600001831085C42EA00210AEB4A00801C9F4AEC
:104610001832105C014302F11A0040F82A100146DA
:1046200051F82A00FFF7CCFF9849723141F82A006F
:1046300001F5807050F82A10A0F5807050F82A001B
:104640000144944840F82A10403050F82A00401C99
:104650009049403141F82A008E4850F82A104030E5
:1046600050F82A0091FBF0F18A48203040F82A10D7
:10467000203050F82A00642806DB0021854840F8E5
:104680002A10403040F82A108048723050F82A1022
:10469000403040F82A10014651F82A0000F0ECFCA6
:1046A00080467D4A7D4B00F006FC064600227C4B8E
:1046B00000F073FC044600F042FD7649803941F871
:1046C0002A0051F82A00774900F0DEFA044600F08B
:1046D000F1FC7049403941F82A000AEB4A016C4864
:1046E0001830405C02040AEB4A00401C684918314B
:1046F000085C42EA00210AEB4A00801C644A183236
:10470000105C014302F11A0040F82A10014651F8EA
:104710002A00FFF755FF01465D48723040F82A1025
:1047200000F5807050F82A10A0F5807050F82A002B
:1047300001445D4840F82A10403050F82A00401CDF
:104740005949403141F82A00574850F82A10403062
:1047500050F82A0091FBF0F15348203040F82A101D
:10476000203050F82A00642806DB00214E4840F82B
:104770002A10403040F82A104548723050F82A106C
:1047800000F5907050F82A00091A4148B23040F8FC
:104790002A10014651F82A0000F06EFC06463E4AF7
:1047A0003E4B00F088FB044600223D4B00F0F5FB39
:1047B000804600F0C4FC3C49803941F82A0051F899
:1047C0002A00384900F060FA044600F073FC3149D1
:1047D00040390AF1080241F82200D01F00F0FF0A18
:1047E000BAF1080FFFF602AF2A484038FEF7D7FBB0
:1047F0002848403800F064F9BDE8F08710B5012082
:104800002149087029480068FFF72EFD30B91F497B
:10481000C91E2648FFF70EFDFFF7D7FE24480068A3
:10482000FFF722FD20B91A49C91E2148FFF702FDF2
:1048300000201549087010BD10B51E48007838B129
:1048400000201C4908701C4801881C4800F081F9B0
:104850001B48007838B100201949087019480188B0
:104860001948FEF7F2FB1948007838B100201749C3
:104870000870174801881748FFF748FE10BD000070
:1048800000040140001001405800002002020020F6
:1048900002040020740300207C613255302AE13F7D
:1048A000000038400000C8427405002028000020A5
:1048B0002C000020900000208E000020AC0700207B
:1048C0005600002054000020A40000208600002094
:1048D00084000020E406002008B54FF4C060FBF718
:1048E00035FD27208DF8000000208DF80100012003
:1048F0008DF802008DF803006846FBF72CFD08BD1B
:1049000010B590B0044601210920FCF7D3F901212C
:104910000846FCF7C2F901218804FCF7D8F91820F1
:104920008DF83F0003208DF83E004FF48060ADF815
:104930003C000FA98D48FBF701FF04208DF83F00D4
:104940004002ADF83C000FA98848FBF7F7FE0B9436
:104950000020ADF83000ADF83200ADF83400ADF80D
:1049600038000C20ADF836000BA98148FCF74BFA53
:10497000012240F224417E48FCF7DDFA01217C4807
:10498000FCF7CDFA40217A48FCF7B1FB01228021E7
:104990007748FCF7F5FA012240217548FCF7F0FA58
:1049A0007448FBF741FD7248001D00907248019069
:1049B0001020029001200390002004908020059098
:1049C00000200690079008904FF4005009900020B6
:1049D0000A9069466748FBF7C9FD01216548FBF766
:1049E000F0FD64481430FBF71FFD6148001D009086
:1049F00062480190002002908020039000200490E3
:104A00008020059000200690079008904FF40050F9
:104A1000099000200A90694656481430FBF7A6FD1D
:104A2000012154481430FBF7CCFDFFF755FF10B0BF
:104A300010BD70B504460D4600BF2020FBF7DCFD1D
:104A40000028FAD02020FBF7EBFD00214948FBF7B6
:104A5000B8FD29464748FBF7C9FD46481C38846223
:104A600001214448FBF7ADFD70BD10B5002440F2B4
:104A700024413F48FCF744FB08B300213D48143073
:104A8000FBF79FFD3A480088C4B23948001D0088F2
:104A9000C4B200BF37481430FBF7AAFDC0F1800054
:104AA00037490880802133481430FBF79FFD0121EE
:104AB00030481430FBF785FD01203249087010BDE5
:104AC0002DE9F0410546002700260024AA202E49A2
:104AD0000870FF204870F12088702020C87000BF47
:104AE0001FE015F82400042101EB8401264A5054EC
:104AF00035F82400C0F30720052101EB8401505450
:104B000055F82400C0F30740062101EB84015054FE
:104B100055F82400000E072101EB84015054601C5D
:104B2000C4B2082CDDDB002007E01749095C3144E2
:104B3000CEB2B919CFB2411CC8B22428F5DB124855
:104B400080F8246080F825702621FEF7DFF9BDE8A3
:104B5000F08170B504460D462A4621460B4800F008
:104B600029F829460948FFF759FC70BD000C01409F
:104B7000004800401C0002408C000020AC070020D0
:104B80008E00002090000020900800202C080020BB
:104B90000649074A0868504343F239021044086046
:104BA00040087047014908607047000094000020E9
:104BB0006D4EC64140EA01039B0703D009E008C9D6
:104BC000121F08C0042AFAD203E011F8013B00F8D2
:104BD000013B521EF9D27047F0B480EA0102D40FB3
:104BE0004200B2EB410F02D20246084611464A008B
:104BF00042D0C30DDDB2C1F3C752AD1A202D35DA54
:104C0000C1F3160141F4000204B15242C5F120067D
:104C100002FA06F12A411044B3EBD05F23D0C4B1AD
:104C2000012DA0EBC35009DCF0BC4FF0004202EABA
:104C3000C352DBB200F5000000F0D7BA400000F12B
:104C4000807000EBC350A0F1807040EAD170490041
:104C500009E0490841EAC071A0EBC35000F500002B
:104C6000400800EBC350F0BC00F0B6BA614201222C
:104C700002EB4101001BF6E7F0BC704781F00041F8
:104C8000AAE780F00040A7E780EA010210B502F031
:104C90000043400022D04A001FD0010E01EB1261F8
:104CA000C0F35600C2F3560240F4000042F4000282
:104CB000A0FB022000047F39140400D0401C50EAFD
:104CC000124001D44000491EC2B20C0604EBD010C1
:104CD000401C4008802A02D003E0002010BD20F0D4
:104CE0000100002900DA0020184310BD30B480EA2A
:104CF000010202F0004530F0004221F0004013D0E4
:104D000090B1C30DD40DC2F31601C0F31600E41A1E
:104D100041F4000140F400027D34914201D3641C4F
:104D200000E04900002C02DA30BC002070474FF44C
:104D300000000023914201D3891A034340084FEA3F
:104D40004101F7D151B1914202D14FF0004105E04C
:104D500002D24FF0010101E06FF0010103EBC450FA
:104D6000284430BC00F038BA2DE9FE4F804681EA75
:104D70000300C00F0C46009021F0004123F00045D5
:104D8000B8EB0200A94105D24046214690461C4698
:104D90000B46024623F00040104347D0270DC7F3CF
:104DA0000A00C3F30A510290401A019040286BDABE
:104DB000C3F3130040F4801B0098924620B10023F7
:104DC000D2EB030A63EB0B0B01985946C0F140028A
:104DD000504600F0D0F906460D4650465946019A15
:104DE00000F0E8F910EB08006141002487EA115255
:104DF00084EAE7731A4340D0009A62B3019A012A09
:104E00004FEA075215DC001B61EB02014FF0004234
:104E100002EA0752CDE90042001C41F580113246FA
:104E20002B4600F01FFA03B0BDE8F08F4046214644
:104E3000F9E7001B61EB0201001C41F5801300182B
:104E40005B412018A2F5001747EB030140EAD5703B
:104E5000B6196D4111E06D084FEA360645EAC07596
:104E60004FEA0752001B61EB0201001C41F5801163
:104E700049084FEA30000019514132462B4603B031
:104E8000BDE8F04F00F0DFB9009801224000002398
:104E9000D0EB020263EBE073009821464FEAE07426
:104EA000B8EB000061EB0401E9E783F000435BE746
:104EB00081F0004158E72DE9FE4F81EA030404F038
:104EC000004421F0004100944FF0000B23F0004318
:104ED00050EA01045ED052EA03045BD0C3F30A54E3
:104EE000C1F30A552C44A4F2F3340194A0FB0254FC
:104EF000C1F3130141F48011C3F3130343F480138E
:104F000001FB024400FB034E840A970A44EA8154E1
:104F100047EA8357A4FB076802958D0A05FB0785BE
:104F20004FEA932C04FB0C542705029D4FEA0658C8
:104F300047EA1637B5EB08056EEB070C870E920EA5
:104F400047EA811742EA8312A7FB0201B6EB0B0185
:104F500064EB00042B0D43EA0C335E1844EB1C5049
:104F6000DA465146E7FB0201C5F313044FEA0B335F
:104F700043EA14534FEA0432019C43EA0603A4F1C6
:104F80000C040294009CCDE900B400F06BF903B06E
:104F9000BDE8F08F00200146F9E72DE9F04D81EAE8
:104FA000030404F0004B21F0004514464FF0000AC2
:104FB00023F0004150EA050220D054EA01021DD03E
:104FC000C5F30A570246C5F31303C1F31300C1F337
:104FD0000A5640F4801543F48013A7EB0608101B13
:104FE000D64608F2FD3873EB050002D308F101083C
:104FF00001E092185B41B8F1000F03DA002001468E
:10500000BDE8F08D00204FF48011064684460EE086
:10501000171B73EB050705D3121B63EB0503064350
:105020004CEA010C49084FEA300092185B4150EA03
:105030000107EDD152EA030012D082EA040083EAAC
:105040000501084305D0101BAB4106D20122002305
:1050500006E000224FF0004302E06FF0010253101F
:105060001AEB06004CEB085110EB0A0041EB0B0168
:10507000BDE8F04D00F0E7B80EB5C10F80EAE07072
:105080000844CA07002140F233438DE80E000A4667
:105090000B4600F0E7F803B000BD0EB540F2334117
:1050A00002910021CDE900110A460B4600F0DAF822
:1050B00003B000BD00F0004220F00040C10DC0F37D
:1050C000160040F400007F2901DA0020704796297D
:1050D00003DCC1F19601C84001E096398840002AFE
:1050E000F4D040427047C1F30A5210B5C1F3130126
:1050F00040F2FF3341F480119A4201DA002010BDE2
:1051000040F233439A42A2F2334203DC524200F0AF
:1051100041F810BD904010BD00F0004230F000405A
:105120000AD0C10D01F56071C0F3160042EA0151C9
:10513000C20840071143704700200146704701F044
:10514000004330B421F0004150EA010206D00A0DBC
:10515000A2F56072C1F31301002A02DC30BC00200A
:105160007047440F44EAC104C100E01830BC00EBB2
:10517000C25000F031B8202A04DB203A00FA02F1D4
:10518000002070479140C2F1200320FA03F3194335
:1051900090407047202A04DB203A21FA02F00021D7
:1051A000704721FA02F3D040C2F120029140084337
:1051B00019467047202A06DBCB17203A41FA02F045
:1051C00043EAE07306E041FA02F3D040C2F1200264
:1051D00091400843194670470029A8BF7047401CFA
:1051E000490008BF20F00100704710B4B0FA80FCFD
:1051F00000FA0CF050EA010404BF10BC704749B13A
:10520000CCF1200421FA04F411FA0CF118BF0121A9
:1052100021430843A3EB0C01CB1D4FEA00614FEA89
:10522000102042BF002010BC704700EBC350104458
:105230000029A4BF10BC7047401C490008BF20F0E3
:10524000010010BC704710B5141E73F1000408DA99
:10525000401C41F1000192185B411A4301D120F03A
:10526000010010BD2DE9F04D92469B4611B1B1FAF7
:1052700081F202E0B0FA80F220329046FFF77BFF25
:1052800004460F4640EA0A0041EA0B0153465A46DB
:10529000084313D0114653EA010019D0C8F1400267
:1052A0005046FFF777FF05460E46504659464246A0
:1052B000FFF761FF084305D0012004E0204639468E
:1052C000BDE8F08D0020054346EAE0762C433743E5
:1052D0000A986305E40AA0EB08000022FD0A44EAEC
:1052E00047540A3002D500200146E9E701051019AC
:1052F0006941DDE9084500196941BDE8F04DA2E7C3
:10530000064C074D06E0E06840F0010394E8070012
:1053100098471034AC42F6D3FAF70EFF4454000815
:1053200064540008014A024900F013B8755300089C
:105330009800002002E008C8121F08C1002AFAD114
:1053400070477047002001E001C1121F002AFBD105
:1053500070472DE9F04116460F460446002503E04C
:105360003946B047641C6D1C20780028F8D12846C7
:10537000BDE8F08138B504468DF800006946032089
:10538000ABBE204638BD000010B5002821D0114B1F
:105390000022001F196803E0814203D80A464968C9
:1053A0000029F9D152B11368841A9C4204D10068D3
:1053B00018441060104602E0506000E0186039B1F7
:1053C00002680B1A934203D10B681A4402604968C1
:1053D000416010BD9C000020F0B50B30154D20F051
:1053E00007010024144A0FE003688B420BD38B4261
:1053F00005D95E1A43184768C3E9006700E04368AF
:10540000136002C004E0021D10680028ECD12046A1
:10541000002802D1286808B10020F0BD064A0748DC
:105420001060074A121A22F00702C0E90024012086
:105430002860D7E7A00000209C000020E40800209E
:10544000E02800206454000800000020A4000000B0
:105450003453000808550008A40000203C880000D0
:105460004453000800A24A040000000000000000AD
:1054700001020304060708090000000001020304FA
:1054800001020304060708090204060800000000E0
:10549000000000000000000000000000000000000C
:1054A00000000000204E000000000000000000008E
:1054B000000000000000000000000000003ED6C018
:1054C000EC024040404040406040000000000000CE
:1054D00000002000000000000000000000000000AC
:1054E00000000000000000000000000000000000BC
:1054F00000000000000000000000000000000000AC
:085500000000000000000000A3
:0400000508000131BD
:00000001FF
